:100000008031E328643400347E14803140017F085D
:10001000A9004E011A1A101E492801304301C807D1
:100020000030C93D4401550843014902031D1C2805
:100030004401540843014802031C2128A83101202F
:1000400080314301311E44284D1D412801304401B7
:10005000D6070030D73D43013B0844015702031D3A
:10006000352843013A0844015602031C4428033052
:100070004001A60026084301DB00A83101208031A1
:1000800044284401D601D701E231352280314E01A6
:1000900010121A18101CCB2801304301C40700307D
:1000A000C53D01304001DE070030DF3DE001E101E8
:1000B0004301AC1EC22801304501D3070030D43DB6
:1000C000D33109238031D5313D25803140012108CC
:1000D0004401CF00400120084401CE004F084B02EC
:1000E000031D74284E084A0203188228013040017B
:1000F000A60026084301DD0704305D02031C8828A2
:10010000AC17882843015D08031988280130DD02F7
:1001100044014708F7004608F60043015F08400124
:10012000A600A7012608F8002708F900D5316F2599
:10013000803176084001A80028084301D900400119
:10014000AA014301590840012A020318BA280130C4
:10015000A6000030A7002A0AAF28A635A70D890BF4
:10016000AD282608E0042708E1040130A60026088F
:10017000AA07A12844014E084301B80744014F08CB
:100180004301B93DA83104208031E2313D22803164
:100190004E011010DE28191A0F1ED428440137080A
:1001A0008A0036080A0080314E01991A8F1EDE2817
:1001B000440135088A0034080A00803140012908CA
:1001C000FF007E1009008031E52898310020803141
:1001D000E4004301803102208031E60080310320B9
:1001E0008031E700FB308400873085004501120034
:1001F000E1001200E2001200E3001200E40012002D
:10020000E500283084002F308500C830FE00003023
:10021000FF00E131AF2180315A3084000030850089
:100220000A30FE000030FF00E131AF218031A03004
:100230008400013085004630FE000030FF00E131CF
:10024000AF21803120308400023085005030FE0024
:100250000030FF00E131AF218031A0308400023056
:1002600085004130FE000030FF00E131AF218031D8
:1002700020308400033085004830FE000030FF004D
:10028000E131AF218031A03084000330850020307F
:10029000FE000030FF00E131AF217E1040019031BF
:1002A000D22840016408043A0319822F0C3A03193A
:1002B000822F013AA43103198E2C8131023A03199D
:1002C000842F073A0319842F013AA5310319022D0F
:1002D000A531042D562FAB016208D0318C2081311D
:1002E00098310120813140012D084301C3004001B4
:1002F0002C084301C20002304101A8002808400137
:10030000AB006208D0318C208131983101208131DD
:1003100040012D084301C10040012C084301C000E9
:1003200004304101A80028084001AB006208D03128
:100330008C20813198310120813140012D08430109
:10034000BF0040012C084301BE0006304101A80057
:1003500028084001AB006208D0318C2081319831EF
:100360000120813140012D084301BD0040012C08CE
:100370004301BC0008304101A80028084001AB003F
:100380006208D0318C2081319831012081314001C7
:100390002D084301BB0040012C084301BA000A307C
:1003A0004101A80028084001AB006208D0318C2030
:1003B0008131983101208131073040012C05410104
:1003C000A900003040012D054101AA002908AB0019
:1003D0002A08AC00AD01AE012B084301AC04410179
:1003E0002C084301AD0441012D084301AE04410135
:1003F0002E084301AF040C304101A8002808400139
:10040000AB006208D0318C208131CE31542681314D
:1004100040012F084301A70040012E084301A60018
:1004200040012D084301A50040012C084301A40010
:10043000D52A430143084001AF004301420840016F
:10044000AE00AB016208D0318C2081314101A8009F
:1004500028084001B000D5310D2581314301410804
:100460004001AF00430140084001AE0002304101AD
:10047000A80028084001AB006208D0318C208131EF
:100480004101A90029084001B000D5310D25813175
:1004900043013F084001AF0043013E084001AE0068
:1004A00004304101A80028084001AB006208D031A7
:1004B0008C2081314101A90029084001B000D531CB
:1004C0000D25813143013D084001AF0043013C0847
:1004D0004001AE0006304101A80028084001AB00F1
:1004E0006208D0318C2081314101A90029084001E6
:1004F000B000D5310D25813143013B084001AF00EB
:1005000043013A084001AE0008304101A800280824
:100510004001AB006208D0318C2081314101A9003B
:1005200029084001B000D5310D2581310730430144
:100530002C054001AE00003043012D054001AF0005
:100540000A304101A80028084001AB006208D03100
:100550008C2081314101A90029084001B000D5312A
:100560000D258131430127084001B10043012608D0
:100570004001B000430125084001AF0043012408B9
:100580004001AE000C304101A80028084001AB003A
:100590006208D0318C2081314101A9002908400135
:1005A000B200CD31272581314301AD152D11562FD4
:1005B00003104301AC1C0314031CE12A4301AC14D7
:1005C000E32A4301AC10AC1CF02A03304101A8001F
:1005D00028084001AE000430CC316B248131042B5B
:1005E00003304101A80028084001AE000530CC319D
:1005F0006B248131042B43012D11AD15562F042B93
:1006000043012D11AD11562F43012D15562F4301D6
:10061000AD142D1C112B66036704031D112B0A302A
:100620001D2B2D1C1A2B0A3066066704031D1A2B7E
:1006300064301D2B2D1C562F0130E6000030E700E2
:10064000562F40016408043A0319D82A0C3A0319BA
:10065000FB2A023A0319FF2A013A03196B29073AC8
:100660000319192A013A0319002B033A0319042B21
:10067000072B562F410130080A3AA2310319DF2A0D
:1006800081311B3A0319862F033A0319212B063AAD
:1006900003195129363A0319882F562F562F430133
:1006A0002D1D5B2B40015B084301C30040015A082C
:1006B0004301C2002D115A084101A800A9012808D0
:1006C0004001AB00410129084001AC001130AD00F0
:1006D0000030AE00D031FE20813156304101AA00F9
:1006E000E030AB0040012B0841012A07B100400176
:1006F0002C0841012B3DB20032084001D4004101D9
:1007000031084001D300430143084001D6004301B2
:1007100042084001D50064084101A80028084001B2
:10072000D700A0317D208131430142084001DA0029
:1007300043014308472E43012D1DA72B40015B08B1
:100740004301C10040015A084301C0002D115A085D
:100750004101A800A90128084001AB004101290876
:100760004001AC001130AD000030AE00D031FE20B1
:10077000813134304101AA00E030AB0040012B0848
:1007800041012A07B10040012C0841012B3DB20074
:1007900032084001D400410131084001D300430137
:1007A00041084001D600430140084001D5006408DB
:1007B0004101A80028084001D700A0317D208131E7
:1007C000430140084001DA0043014108472E43013C
:1007D0002D1DF32B40015B084301BF0040015A0867
:1007E0004301BE002D115A084101A800A9012808A3
:1007F0004001AB00410129084001AC001130AD00BF
:100800000030AE00D031FE20813112304101AA000B
:10081000E030AB0040012B0841012A07B100400144
:100820002C0841012B3DB20032084001D4004101A7
:1008300031084001D30043013F084001D600430185
:100840003E084001D50064084101A8002808400185
:10085000D700A0317D20813143013E084001DA00FC
:1008600043013F08472E43012D1D3F2C40015B08EB
:100870004301BD0040015A084301BC002D115A0834
:100880004101A800A90128084001AB004101290845
:100890004001AC001130AD000030AE00D031FE2080
:1008A0008131AC304101AA00DF30AB0040012B08A0
:1008B00041012A07B10040012C0841012B3DB20043
:1008C00032084001D400410131084001D300430106
:1008D0003D084001D60043013C084001D5006408B2
:1008E0004101A80028084001D700A0317D208131B6
:1008F00043013C084001DA0043013D08472E430113
:100900002D1D8B2C40015B084301BB0040015A08A0
:100910004301BA002D115A084101A800A901280875
:100920004001AB00410129084001AC001130AD008D
:100930000030AE00D031FE2081318A304101AA0062
:10094000DF30AB0040012B0841012A07B100400114
:100950002C0841012B3DB20032084001D400410176
:1009600031084001D30043013B084001D600430158
:100970003A084001D50064084101A8002808400158
:10098000D700A0317D20813143013A084001DA00CF
:1009900043013B08472E43012D1DE02C013041014E
:1009A000A80028084301E00704306002031CDA2C89
:1009B000E001E00A6008AB314C23813143012D1185
:1009C0005A084101A800A90128084001AB004101D3
:1009D00029084001AC001130AD000030AE00D0312C
:1009E000FE20813168304101AA00DF30AB004001B8
:1009F0002B0841012A07B10040012C0841012B3D81
:100A0000B20032084001D400410131084001D30056
:100A1000430160084101A800A90128084001D50050
:100A2000410129084001D60064084101AA002A08B2
:100A30004001D700A0317D208131642F43012D1D5D
:100A4000322D40015D084301A70040015C084301CD
:100A5000A60040015B084301A50040015A0843017C
:100A6000A4002D115A084101A800A901280840013D
:100A7000AB00410129084001AC001130AD0000304D
:100A8000AE00D031FE2081319C304101AA00DE3021
:100A9000AB0040012B0841012A07B10040012C089E
:100AA00041012B3DB20032084001D4004101310820
:100AB0004001D300430125084001D600430124082A
:100AC0004001D50064084101A80028084001D70072
:100AD000A0317D208131430127084001DD00430121
:100AE00026084001DC00430125084001DB004301EA
:100AF00024084001DA00642F4301AD1D8A2D031044
:100B00002C1C0314031C872D43012C14892D430135
:100B10002C10AD115A084101A800A9012808400174
:100B2000AB00410129084001AC001130AD0000309C
:100B3000AE00D031FE208131F0304101AA00DF301B
:100B4000AB0040012B0841012A07B10040012C08ED
:100B500041012B3DB20032084001D400410131086F
:100B60004001D30043012C0801394101A800A9012B
:100B700028084001D500410129084001D600640839
:100B80004101AA002A084001D700A0317D2081310F
:100B9000642F4301AD1DD72D03102C1D0314031C1E
:100BA000D42D43012C15D62D43012C11AD115A081B
:100BB0004101A800A90128084001AB004101290812
:100BC0004001AC001130AD000030AE00D031FE204D
:100BD0008131CE304101AA00DF30AB0040012B084B
:100BE00041012A07B10040012C0841012B3DB20010
:100BF00032084001D400410131084001D3004301D3
:100C00002C0C890C01394101A800A90128084001D8
:100C1000D500410129084001D60064084101AA001D
:100C20002A084001D700A0317D208131642F430183
:100C30002D1D2B2E40015B084301B70040015A08CF
:100C40004301B60040015B084301B50040015A086A
:100C50004301B4002D116C304001D300E830D400C2
:100C6000430137084001D600430136084001D50052
:100C700064084101A80028084001D700A0317D2068
:100C80008131430136084001DA0043013708400151
:100C9000DB00DC01DD01642F4301AD1D662E5A0827
:100CA0004101A800A90128084001AB004101290821
:100CB0004001AC001130AD000030AE00D031FE205C
:100CC000813136304101AA00DE30B82E5A08410188
:100CD000A800A90128084001AB00410129084001F2
:100CE000AC001130AD000030AE00D031FE208131BB
:100CF00014304101AA00DE30AB0040012B08410155
:100D00002A07B10040012C0841012B3DB2003208F6
:100D10004001D400410131084001D3006208013E86
:100D2000D500003003180130D60064084101A80046
:100D300028084001D700A0317D208131642F430174
:100D4000AD1DCB2E5A084101A800A9012808400179
:100D5000AB00410129084001AC001130AD0000306A
:100D6000AE00D031FE20813158304101AA00DE3082
:100D7000AB0040012B0841012A074001B1002C08BB
:100D800041012B3D4001B2005430D1311A21813153
:100D90004301AD11642F5A084101A800A901280898
:100DA0004001AB00410129084001AC001130AD0009
:100DB0000030AE00D031FE2081317A304101AA00EE
:100DC000DE30AB0040012B0841012A07B100400191
:100DD0002C0841012B3DB20032084001D4004101F2
:100DE00031084001D3006208013ED50000300318ED
:100DF0000130D60064084101A80028084001D7004E
:100E0000A0317D208131642F4301AD10BE313B26DE
:100E10008131642F43012D1D182F01304101A8009D
:100E200028084301DA0702305A020318DA012D11AB
:100E30005A084101A800A90128084001AB0041015E
:100E400029084001AC001130AD000030AE00D031B7
:100E5000FE208131F4304101AA00DB30AB004001BB
:100E60002B0841012A07B10040012C0841012B3D0C
:100E7000B20032084001D400410131084001D300E2
:100E800043015A084101A800A90128084001D500E2
:100E9000410129084001D60064084101AA002A083E
:100EA0004001D700A0317D208131642F40016408CA
:100EB000FF3E031C642F84000E3004020318642FCD
:100EC000D0310435703E82004301AD1C0800E13191
:100ED000DF2181314001B501B50A5430B60003303D
:100EE000B7000130E731C12781314001B501B50AB2
:100EF0004030B6000330B7000230E731C12743016C
:100F0000AD100800A531012DA431882CA431692C25
:100F1000A231D12A410153084001BB0041015408CC
:100F20004001BC00410155084001BD00410153088A
:100F3000C8005408C9005508CA00CA31CA228731FE
:100F400041014808D0004908D1004A08D200E231E6
:100F500009228731410150084001BE00410151087A
:100F60004001BF00410152084001C000B0312720BC
:100F7000873140013B084101D60040013C08410156
:100F8000D70040013D084101D80056084001BB0090
:100F9000410157084001BC00410158084001BD0013
:100FA000410153084001BE00410154084001BF0007
:100FB000410155084001C000B03127208731400170
:100FC0003B084101D30040013C084101D4004001ED
:100FD0003D084101D5005308C8005408C900550810
:100FE000CA00CA31CA2241014808D3004908D400C6
:100FF0004A08D500080030343034303430340034FE
:101000004A010F084001B4004A0110084001B50030
:101010004A0111084001B6004A0112084001AB0024
:101020004A0113084001AC004A0114084001AD0018
:101030006430AE000030AF000030B000B0310020AE
:10104000883140012B08B7002C08B8002D08B900E2
:10105000C831B9204001340808004101BF01BD0179
:10106000BE0100304301321801304101BC00430190
:1010700023084101BA00430122084101B90043019C
:1010800021084101B800430120084101B700E131C6
:10109000DF2188315E304001D700E830D800C6310A
:1010A000BE268831E131DF2188314001AE01AE0A30
:1010B0000130D531D8258831C7304001B000E83043
:1010C000B100D13171218831430136084001CA0095
:1010D000430137084001CB00CC01CD010A30CE00DE
:1010E0000030CF005C30D431DE2488315C304001E8
:1010F000B0000230B100D13171218831F2304001AD
:10110000B000E830B100D13171218831D331D22320
:1011100088314301321001304001B0000030B1008D
:101120000530CC31C4248831430137084001C70061
:10113000430136084001C600C53185258831092A9A
:101140000A303F06031D092A4301AC150030400157
:10115000D300D400B3314C2388314301410840010E
:10116000D400430140084001D300A5314B2588310C
:1011700000304001BA00BB00BC318F2488314301EC
:10118000CD1099319E218831430135084001C700B7
:10119000430134084001C600C5318525883143012B
:1011A0002C1FD9284101BF0141304001D700E83050
:1011B000052A4301250841013E02031DE32843019E
:1011C000240841013D02031CEB28BF01D830400137
:1011D000D700E030052A01304101BD070030BE3D97
:1011E0004001AE01AE0A0130D531D8258831CF306B
:1011F0004001B000E830B100D131712188314101A6
:101200003D084001CA0041013E084001CB00CC012D
:10121000CD010A30CE000030CF005C30D431DE2466
:1012200088315C304001B0000230B100D131712111
:101230008831F1304001B000E830B100D131712186
:101240008831D331D22388310A304001AB000030DD
:10125000AC00430143084001AE0043014208400195
:10126000AD00D531A325883140012C08B4002B08EE
:10127000B300D13136218831092A0A3041013F06B5
:101280000319FE2964304001D90059084101BF000B
:10129000092A0A303F060319092A0A304001D900F9
:1012A00059084101BF00BD01BE01092A0A303F06AD
:1012B000031D662986304001D700E830D800C631CA
:1012C000BE2688314101BD01BE01BF010A30430184
:1012D000B6070030B73D37084001C7004301360864
:1012E0004001C600C531852588314001AE01AE0AF6
:1012F0000130D531D8258831C7304001B000E83001
:10130000B100D13171218831430136084001CA0052
:10131000430137084001CB00CC01CD010A30CE009B
:101320000030CF005C30D431DE2488315C304001A5
:10133000B0000230B100D13171218831F23040016A
:10134000B000E830B100D13171218831092A0A306A
:1013500041013F06031DB82986304001D700E8301F
:10136000D800C631BE2688314101BD01BE01BF0192
:101370000A304301B6020030B73B37084001C700CE
:10138000430136084001C600C5318525883140013A
:10139000AE01AE0A0130D531D8258831C7304001C1
:1013A000B000E830B100D1317121883143013608F5
:1013B0004001CA00430137084001CB00CC01CD01F8
:1013C0000A30CE000030CF005C30D431DE248831CA
:1013D0005C304001B0000230B100D1317121883160
:1013E000F2304001B000E830B100D13171218831D4
:1013F000092A0A3041013F06031D092ABD01BE0129
:10140000BF0186304001D700E830D800C631BE2683
:101410008831643041013F060319352AC231CC229C
:1014200088314001D90059084101BB0041013B0806
:10143000093A03193D29033A0319F929063A031910
:101440003D291D3A03195629033A03194929063A39
:101450000319A729353A0319F929033A0319F92978
:10146000063A0319F929A028092A3A084301A300DA
:10147000410139084301A200410138084301A1009C
:10148000410137084301A00041013C0801394301F3
:101490003210031D32140800C231CC228A314101BE
:1014A000D70057084201AC00C231CC228A31410139
:1014B000D70057084201AB002C082B060319622AFB
:1014C000AC01AB010030E13112218A31003A03193D
:1014D000AE2E1A304101D8005E30D7006E30890B35
:1014E0006F2AD70B6F2AD80B6F2A0000400197177D
:1014F00064004201B001300A03199D2A64004001D2
:10150000AB0142013008D23199228A3101304101C8
:10151000D70057084201B0077B2A84304301B60048
:101520004E309B2A1C304301B60089309B2AFC3088
:101530004301B6003A30B700A72A003084000530D6
:1015400004020318A72AE1310435F53E8200C830B1
:101550004001AE000030AF00C8304101D70057084D
:101560004001B000D5310D258A31E8304001AE0090
:101570000330AF00CA304101D70057084001B00026
:10158000D5310D258A31E8304001AE000330AF007F
:10159000CC304101D70057084001B000D5310D25AE
:1015A0008A31C8304001AE000030AF00CE3041017A
:1015B000D70057084001B000D5310D258A310A30D7
:1015C0004001AE000030AF00D0304101D7005708D5
:1015D0004001B000D5310D258A3143013708400163
:1015E000AF00430136084001AE00DA304101D700B8
:1015F00057084001B000D5310D258A310030400137
:10160000B1000030B0000030AF000030AE00D2308A
:101610004101D70057084001B200CD3127258A315A
:1016200000304001B1000030B0000030AF00C830E1
:10163000AE00D6304101D70057084001B200CD318D
:1016400027258A3143015C084101D7005708400132
:10165000AB00C430D23199228A3141015608D700FB
:1016600057084001AB00C630D23199228A3143017C
:101670005A084101D70057084001AB00FA30D23177
:1016800099228A3100304001B1000030B0000030B2
:10169000AF000030AE00B201B20ACD3127258A3149
:1016A00000304001B1000030B0000030AF00003029
:1016B000AE00DC304101D70057084001B200CD3107
:1016C00027258A3130304101D70057084001AB004F
:1016D000E630D23199228A3130304101D7005708A3
:1016E0004001AB00E730D23199228A3130304101DC
:1016F000D70057084001AB00E830D23199228A3137
:1017000030304101D70057084001AB00E930D231F9
:1017100099228A31B9308400E83085000008D03E33
:101720004201B100FF3003180030B200BA3084002B
:10173000E83085000008D03EB300FF3003180030C9
:10174000B400BB308400E83085000008D03EB5000E
:10175000FF3003180030B600BC308400E83085004C
:101760000008D03EB700FF3003180030B8000A3040
:101770004001B1000030B200420134084001AC0029
:10178000420133084001AB000730AD000030AE002D
:10179000D031FE208A3140012B084101D7004001A1
:1017A0002C084101D800420136084001AC0042013A
:1017B00035084001AB000B30AD000030AE00D03139
:1017C000FE208A3140012B0841015707D900400112
:1017D0002C084101583DDA00420138084001AC00B4
:1017E000420137084001AB000D30AD000030AE00C3
:1017F000D031FE208A3140012B08410159074001B8
:10180000B3002C0841015A3D4001B400C831FE200C
:101810008A3140013108303E4201B10000304001C0
:10182000323D4201B2000A304001B1000030B20046
:10183000420132084001AC00420131084001AB00D6
:101840000730AD000030AE00D031FE208A314001BB
:101850002B084101D70040012C084101D80042016A
:1018600036084001AC00420135084001AB000B30A6
:10187000AD000030AE00D031FE208A3140012B088F
:1018800041015707D90040012C084101583DDA00B9
:10189000420138084001AC00420137084001AB006A
:1018A0000D30AD000030AE00D031FE208A31400155
:1018B0002B08410159074001B3002C0841015A3D52
:1018C0004001B400C831FE208A3140013108303E69
:1018D0004201B30000304001323D4201B4000A3001
:1018E0004001B1000030B200420134084001AC00B8
:1018F000420133084001AB000730AD000030AE00BC
:10190000D031FE208A3140012B084101D70040012F
:101910002C084101D800420132084001AC004201CC
:1019200031084001AB000B30AD000030AE00D031CB
:10193000FE208A3140012B0841015707D9004001A0
:101940002C084101583DDA00420138084001AC0042
:10195000420137084001AB000D30AD000030AE0051
:10196000D031FE208A3140012B0841015907400146
:10197000B3002C0841015A3D4001B400C831FE209B
:101980008A3140013108303E4201B500003040014B
:10199000323D4201B6000A304001B1000030B200D1
:1019A000420134084001AC00420133084001AB0061
:1019B0000730AD000030AE00D031FE208A3140014A
:1019C0002B084101D70040012C084101D8004201F9
:1019D00036084001AC00420135084001AB000B3035
:1019E000AD000030AE00D031FE208A3140012B081E
:1019F00041015707D90040012C084101583DDA0048
:101A0000420132084001AC00420131084001AB0004
:101A10000D30AD000030AE00D031FE208A314001E3
:101A20002B08410159074001B3002C0841015A3DE0
:101A30004001B400C831FE208A3140013108303EF7
:101A40004201B70000304001323D4201B800310888
:101A50004101D70057084001AB00EA30D23199224A
:101A60008A31420133084101D70057084001AB00D9
:101A7000EB30D23199228A31420135084101D70039
:101A800057084001AB00EC30D23199228A31420133
:101A900037084101D70057084001AB00ED30D23183
:101AA00099228A31410153084001BE004101540886
:101AB0004001BF00410155084001C0000030BB009B
:101AC0002030BC004230BD00B03127208A314001B7
:101AD0003B08CB003C08CC003D08CD000430C800DA
:101AE000AD30C9003A30CA00B9318F218A31400186
:101AF00048084101D000400149084101D10040019E
:101B00004A084101D200E23109228A3141015008DC
:101B10004201A000410151084201A10041015208C7
:101B20004201A20020084001BE00420121084001FC
:101B3000BF00420122084001C000B430BB00283081
:101B4000BC003F30BD00B03127208A3140013B0846
:101B5000CB003C08CC003D08CD000030C8008030F0
:101B6000C9004030CA00B9318F218A31400148088C
:101B70004101D000400149084101D10040014A081B
:101B80004101D200E23109228A314101500842016B
:101B9000A300410151084201A40041015208420141
:101BA000A50000304001BB00A030BC004030BD00AB
:101BB000420123084001BE00420124084001BF0049
:101BC000420125084001C000B03127208A31400180
:101BD0003B084201AD0040013C084201AE0040011B
:101BE0003D084201AF0000304101AA00A030AB0027
:101BF0004030AC00C0304001C8007F30C9004430E4
:101C0000CA0042012D084001CB0042012E084001CC
:101C1000CC0042012F084001CD00B9318F218A311B
:101C2000400148084101AD00400149084101AE00B2
:101C300040014A084101AF00BA3143228A314101D3
:101C40002A084201AD0041012B084201AE004101CA
:101C50002C084201AF0000304101BA000030BB0047
:101C60000030BC00B831DC208A3141013A08D00094
:101C70003B08D1003C08D200E23109228A314101FF
:101C800050084201A600410151084201A70041014C
:101C900052084201A8002D084001BB0042012E0855
:101CA0004001BC0042012F084001BD00420126084E
:101CB0004001BE00420127084001BF004201280840
:101CC0004001C000B03127208A3140013B08420169
:101CD000AD0040013C084201AE0040013D08420118
:101CE000AF002D084001CB0042012E084001CC007E
:101CF00042012F084001CD000030C800C830C900A3
:101D00004230CA00B9318F218A314001480841016F
:101D1000BA00400149084101BB0040014A084101A5
:101D2000BC00C33152238A3141013B084201AA0061
:101D300041013A084201A9002A084001AF004201CE
:101D400029084001AE00F0304101D700570840019A
:101D5000B000D5310D258A31400197130D30410176
:101D6000D800AF30D700B630890BB42ED70BB42EC5
:101D7000D80BB42E0000E131DF218A315830400108
:101D8000B500D830B6000130C03100208A319F3014
:101D90004001B500E830B6000230C03100208A3181
:101DA000FA30E13112218A314101D700570843014D
:101DB000DA00C630E13112218A314101D7005708DB
:101DC0004301E000C430E13112218A314101D700E2
:101DD00057084301DC00C830983101208A314001A6
:101DE0002D084301C30040012C084301C200CA3042
:101DF000983101208A3140012D084301C100400182
:101E00002C084301C000CC30983101208A314001B8
:101E10002D084301BF0040012C084301BE00CE3015
:101E2000983101208A3140012D084301BD00400155
:101E30002C084301BC00D030983101208A31400188
:101E40002D084301BB0040012C084301BA00DA30E1
:101E5000983101208A3140012D084301B70040012B
:101E60002C084301B600D230983101208A31073066
:101E700040012C054101D700003040012D054101F2
:101E8000D8005708D9005808DA00DB01DC015908EE
:101E90004301AC0441015A084301AD0441015B0810
:101EA0004301AE0441015C084301AF04D630CE319A
:101EB00054268A3140012F084301A70040012E0813
:101EC0004301A60040012D084301A50040012C0854
:101ED0004301A4000530CE3154268A3140012F0839
:101EE0004301A30040012E084301A20040012D0838
:101EF0004301A10040012C084301A0000130CE3174
:101F000054268A3140012F084401B30040012E08B5
:101F10004401B20040012D084401B10040012C08E9
:101F20004401B000DC30CE3154268A3140012F0804
:101F30004401AF0040012E084401AE0040012D08CD
:101F40004401AD0040012C084401AC0000304101C7
:101F5000AA00C830AB004230AC00F030983101200C
:101F60008A3140012D08B4002C08B300D2312F2251
:101F70008A31400133084101AD004001340841017C
:101F8000AE00400135084101AF00BA3143228A3129
:101F900041012A084501CC0041012B084501CD0033
:101FA00041012C084501CE00F32F4301E101E10A74
:101FB000D23151228A31D23151228A31D231512249
:101FC0000800B5318D25080002304101D7005708BF
:101FD0004301E100D23151228A31D23151228A317A
:101FE000D2315122080042012C08123A0319D52F90
:101FF000333A0319E12F053A0319E42FFF2F0800A4
:1020000044011A10080041012A084001AB004101B7
:102010002B084001AC0041012C084001AD0000300C
:10202000AE000030AF000030B000D63180269031D5
:102030000318272821304501CF000030D0000030A0
:102040004101AA000030AB000030AC0008004101A3
:102050002C082B042A04031D3A2822304501CF0006
:102060000030D00000304101AA000030AB00003049
:10207000AC00080000304001BB008030BC00BF3025
:10208000BD000030C8000030C9004030CA00AD308B
:10209000D8005808AE0041012A084001AB004101B8
:1020A0002B084001AC0041012C084001AD00D631A5
:1020B000BC26903140012B08CB002C08CC002D0809
:1020C000CD00B9318F21903140014808BE00490848
:1020D000BF004A08C000B0312720903140013B08C2
:1020E0004101AA0040013C084101AB0040013D080C
:1020F0004101AC00FF30AD07FF30AE3D2A08A00023
:102100002B08A1002C08A200B830A300E030A400E6
:102110000830A5000030A600C1314B2190314101AB
:102120002008AA002108AB002208AC002A084001C0
:10213000BB0041012B084001BC0041012C084001BB
:10214000BD007230C8003130C9003F30CA004101C3
:102150002E084001B40041012D084001B300D231E6
:102160002F22903140013308CB003408CC003508D1
:10217000CD00B9318F21903140014808BE00490897
:10218000BF004A08C000B031272040013B08410190
:10219000AA0040013C084101AB0040013D0841015B
:1021A000AC0008004201C801C80ACE014301DA01AF
:1021B000D331A9239031D131EE2190310F308400F9
:1021C000E9308500003F4101D300013FD400023FC8
:1021D000D50042014808C40044084101D6008A31B4
:1021E0004C22903142014808031DFA28C7315F276D
:1021F0009031FF2843016008AB314C2390314201FC
:102200004E08031D17292030B8004E30B900F030B9
:10221000BA000A30BB00E830BC000330BD00E83033
:10222000BE000330BF009431622490317B2942010B
:102230004E03031D2F292030B8004E30B900403026
:10224000BA000630BB00E830BC000330BD00E83007
:10225000BE000330BF009431622490317B290330EB
:1022600042014E06031D4829B830B8008830B90035
:10227000E830BA000330BB00DC30BC000030BD00E9
:10228000F430BE000130BF009431622490317B29CC
:10229000023042014E06031D6129B830B800883073
:1022A000B900B030BA000430BB00DC30BC000030F4
:1022B000BD00E830BE000330BF009431622490318D
:1022C0007B29043042014E06031D7A293030B800C4
:1022D0007530B900E830BA000330BB00DC30BC0018
:1022E0000030BD00F430BE000130BF0094316224E4
:1022F00090317B297A294301B11001304001B000AF
:102300000030B1000530CC31C4249031643040013C
:10231000B3000030B400D13136219031BE313B26BC
:102320009031D63145269031E131DF219031BE30F8
:102330004001B500E830B6000130C03100209031D6
:10234000B5304001B500E830B6000230C0310020A1
:10235000903164304001B3000030B400D1313621F7
:1023600090318831002090314201C400440843017B
:10237000DE00D2310E22903114304001B300003023
:10238000B400D1313621903140018F1BB92943016E
:1023900061080319E429CE31BA2690314301CC1CDF
:1023A0004C19DB29E42988312D209031E429A93109
:1023B000EC219031E42943016108013A0319D32942
:1023C000033A0319D729E4294301E1013708400101
:1023D000C700430136084001C600C531852590314C
:1023E000CF318927903100304001B000B100053075
:1023F000CC31C4249031E131BB219031B62AD231A5
:102400000E22903114304001B3000030B400D131BD
:102410003621903140018F1BFF2943015A084201A8
:10242000C400C50144084001AB0042014508400119
:10243000AC001130AD000030AE00D031FE20903144
:1024400038304201C600DC30C70040012B08420191
:102450004607C90040012C084201473DCA004A080E
:102460004001D800420149084001D700C631BE26CC
:102470009031B62A01304001B0000030B100053083
:10248000CC31C424903101304001B0000030B100A3
:102490000330CC31C4249031C431642490314301E1
:1024A000E301AD13E131BB21903100304001B000B8
:1024B000B1000530CC31C424903100304001B0006F
:1024C000B1000330B32A2C1FCD1CC12A01304001BA
:1024D000B0000030B1000530CC31C424903140014F
:1024E000DE01DF01E131DF2190314001AE01AE0AB2
:1024F0000130D531D82590314301AC154308400156
:10250000D400430142084001D300B3314C23903141
:10251000430141084001D400430140084001D30079
:10252000A5314B25903143013D084001BB004301DB
:102530003C084001BA00BC318F24903143015C0853
:10254000031D5B08031D7E2ACD1099319E21903119
:102550004301E301AD13E131BB2190310030400173
:10256000B000B1000530CC31C4249031CE31BA2650
:10257000903140018F1BFF2943014C183A2A2C1A35
:10258000632ACD1CB62AC231CC2290314201C4004C
:102590004408CF00CB0109304F06031D262B013024
:1025A0004001B0000030B1000530CC31C42490317E
:1025B00000304001B300B40042014F08D731352745
:1025C0009031BF311B2790314201C4004408CB0039
:1025D0004B03031DEF2AB4316B2490311F2B4201B2
:1025E0004B08031D1F2B43015A084201C400C501BB
:1025F00044084001AB00420145084001AC001130E5
:10260000AD000030AE00D031FE209031D430420118
:10261000C600D930C70040012B0842014607C90057
:1026200040012C084201473DCA004A084001D80039
:10263000420149084001D700C631BE269031E13140
:10264000BB219031CF3189279031AE2A123042011F
:102650004F06031D492B01304001B0000030B1008E
:102660000530CC31C4249031BD3163259031E13146
:10267000BB219031CF318927903100304001B0002B
:10268000B1000530CC31C42490314301AD13E301D6
:10269000B62A0C3042014F06031D5E2B013040016B
:1026A000B0000030B1000530CC31C4249031C931C4
:1026B00044219031E73160279031712B2130420164
:1026C0004F06031D7B2B01304001B0000030B100EC
:1026D0000530CC31C424903142014F08B1311D2165
:1026E0009031E131BB219031CF31892790314301C5
:1026F000AD13E301AE2A243042014F06031D972B90
:1027000001304001B0000030B1000530CC31C424AC
:10271000903142014F089C3199249031E131BB2125
:102720009031CF31892790314301AD13AE2A430157
:10273000AD1BB52BAD1745084401D3004301440838
:102740004401D200D001D1014201CC0104304C023D
:102750000318B62A4C08C83E860002308700810163
:102760000130C4004408CC07A62BAD1FB62A440193
:1027700052094201C400440153094201C500C40A80
:102780000319C50A4301440842014407C600430136
:1027900045084201453DC700003047026530031936
:1027A0004602031CB62A430145084401D3004301F5
:1027B00044084401D2000130D0070030D13D42012D
:1027C000CD0104304D020318F62B0130C4004D0832
:1027D000C83E860002308700440881070130C400EB
:1027E0004408CD0704304D02031CE52B143045018D
:1027F0004802031C1F2CC801430165140A30C6316E
:102800001D26903140013E08C7003D08C600D63164
:102810000E269031003A0319122C43013708B500F7
:102820003608B400430135084001C70043013408AD
:102830004001C600C5318525903143016510023045
:1028400045014902031C342CC90143016208031DE0
:102850002F2CE201E20ACF3189279031342C430139
:10286000E201AC31B32490310230440151025830BE
:1028700003195002031CB62AD001D101FF304201D6
:10288000C40044084301E50040019717430137089D
:10289000B5003608B40035084001C70043013408CC
:1028A0004001C600C531852590310A304001B30092
:1028B0000030B400D131362190314301E5014001AF
:1028C0009713B62A4801C401C40A0630440203180B
:1028D000732C01304201C00040084801C407063093
:1028E0004402031C692CC501C50A053045020318C2
:1028F000832C01304201C00040084801C507053063
:102900004502031C792CD2010A3052020318A72C6D
:1029100052084201C000C101C035C10D2830C200BB
:102920002F30C3004008420786004108433D87001E
:1029300044014408C03F4508C13F01304201C00086
:1029400040084801D2070A305202031C882C420179
:1029500039084401C500420138084401C40043015C
:102960003708B5003608B40042013808583E440123
:10297000C20002304201393D4401C300420138081F
:10298000F43E4401BE0001304201393D4401BF0024
:1029900042013808383E4401BC00FF304201393D55
:1029A0004401BD0042013808063E4401C000FF302A
:1029B0004201393D4401C10042013B084001B400DD
:1029C00042013A084001B300E731EB27943140015E
:1029D0003308CB003408CC003508CD009A30C8004D
:1029E0009930C9003F30CA00B9318F21943140017C
:1029F00048084101AD00400149084101AE004001D5
:102A00004A084101AF000030AA00C830AB00423094
:102A1000AC00BA314322943141012A08D3002B087B
:102A2000D4002C08D50087318A27943141015308FE
:102A30004801CF00410154084801D0004101550828
:102A40004801D1004F084101BA0048015008410136
:102A5000BB00480151084101BC00C33152239431ED
:102A600041013B084401CB0041013A084401CA003E
:102A7000420139084101BB00420138084101BA0056
:102A800042013D084101BD0042013C084101BC003A
:102A9000C2314A22943141013A084801C60041013D
:102AA0003B084801C70041013C084801C8004201F9
:102AB00039084101BB00420138084101BA00163013
:102AC000BC000030BD00C2314A22943141013A08B5
:102AD0004801C90041013B084801CA0041013C08C6
:102AE0004801CB0049084001C80048014A0840019C
:102AF000C90048014B084001CA004801460840018E
:102B0000CB00480147084001CC004801480840017B
:102B1000CD00B9318F219431400148084801C100EE
:102B2000400149084801C20040014A084801C30069
:102B300049084001BB0048014A084001BC00480167
:102B40004B084001BD00480146084001BE00480155
:102B500047084001BF00480148084001C000B031AB
:102B60002720943140013B084101AA0040013C0864
:102B70004101AB0040013D084101AC000030AD0017
:102B80000C30AE004430AF00BA31432294314101E1
:102B90002A084801A90041012B084801AA00410167
:102BA0002C084801AB0029084101D60048012A0839
:102BB0004101D70048012B084101D800A831AC20C1
:102BC0009431410156084801A300410157084801CA
:102BD000A400410158084801A50041084101AA008C
:102BE000480142084101AB00480143084101AC00E3
:102BF000480149084001BB0048014A084001BC00A7
:102C000048014B084001BD00480146084001BE0094
:102C1000480147084001BF00480148084001C00082
:102C2000B0312720943140013B084101AD00400103
:102C30003C084101AE0040013D084101AF00BA31FE
:102C40004322943141012A084801AC0041012B087C
:102C50004801AD0041012C084801AE004108410186
:102C6000AA00480142084101AB0048014308410164
:102C7000AC000030AD000C30AE004430AF00BA31D3
:102C80004322943141012A084801AF0041012B0839
:102C90004801B00041012C084801B1000030410159
:102CA000E3000030E4004030E50048012C08410119
:102CB000E00048012D084101E10048012E084101D2
:102CC000E200B23132229431410160084801B20081
:102CD000410161084801B300410162084801B400A4
:102CE00000304101E3000030E4004030E5004801DD
:102CF0002F084101E000480130084101E10048018E
:102D000031084101E200B2313222943141016008C0
:102D10004801B500410161084801B600410162085F
:102D20004801B70032084001BB00480133084001A8
:102D3000BC00480134084001BD004801350840018D
:102D4000BE00480136084001BF0048013708400175
:102D5000C000B0312720943140013B084801B80041
:102D600040013C084801B90040013D084801BA0053
:102D700038084101E700480139084101E8004801ED
:102D80003A084101E9009831332094314101670844
:102D90004801BB00410168084801BC0041016908C5
:102DA0004801BD0033304001C8008530C9004130C2
:102DB000CA0048013B084001CB0048013C084001E3
:102DC000CC0048013D084001CD00B9318F2194313C
:102DD000400148084801A600400149084801A700F1
:102DE00040014A084801A80026084001C8004801DF
:102DF00027084001C900480128084001CA004201D3
:102E00003F084001B40042013E084001B300E731F1
:102E1000EB27943140013308CB003408CC0035084F
:102E2000CD00B9318F219431400148084801CC00D0
:102E3000400149084801CD0040014A084801CE0040
:102E400023084101E300480124084101E40048014E
:102E500025084101E500A0310120943141016308BA
:102E60004801BE00410164084801BF0041016508F6
:102E70004801C0004C084001C80048014D0840010D
:102E8000C90048014E084001CA0048013E084001FF
:102E9000CB0048013F084001CC00480140084001F8
:102EA000CD00B9318F219431400148084801A0007C
:102EB000400149084801A10040014A084801A20018
:102EC0000A304001AD000030AE0042013B08400135
:102ED000AC0042013A084001AB00D031FE209431F1
:102EE00040012C08B4002B08B300E731EB279431E4
:102EF000400133084101AD00400134084101AE00FA
:102F0000400135084101AF0048014C084101AA00C9
:102F100048014D084101AB0048014E084101AC0099
:102F2000BA314322943141012A08D3002B08D4003E
:102F30002C08D50087318A27943141015308480174
:102F4000CF00410154084801D00041015508480113
:102F5000D1004F084101BA00480150084101BB00AF
:102F6000480151084101BC00C33152239431410151
:102F70003B084401C70041013A084401C60048012A
:102F80004C084101AD0048014D084101AE00480127
:102F90004E084101AF000030AA00C830AB004230FB
:102FA000AC00BA314322943141012A08D3002B08E6
:102FB000D4002C08D50087318A2794314101530869
:102FC0004801CF00410154084801D0004101550893
:102FD0004801D1004F084101BA00480150084101A1
:102FE000BB00480151084101BC00C33152234101DB
:102FF0003B084401C90041013A084401C8000800E7
:1030000001344001B0003008E13112219831400113
:10301000AE002E084301A80007304001AE007D300D
:10302000890B1028AE0B102801304001AE002E088D
:10303000B0073008E131122198314001AF002F086C
:103040004301A90007304001AE007D30890B2628DE
:10305000AE0B2628430129084001AD004301280892
:103060004001AC00080000304001AB000030AC0073
:103070000030AD00410167084001AE004101680821
:103080004001AF00410169084001B000D6318026FF
:103090009831031C6F28410167084001AB004101D2
:1030A00068084001AC00410169084001AD000030F2
:1030B000AE000030AF000030B000D631802698312D
:1030C0000318672821304501CF000030D0000030C0
:1030D0004101E7000030E8000030E900080041014C
:1030E00067084201AE00410168084201AF0041019A
:1030F00069084201B00041016709EA006809EB0074
:103100006909EC00EA0A0319EB0A0319EC0AC83052
:103110006A074201B5006E3041016B3D4201B600C5
:10312000BE3041016C3D4201B7000130B736B60CEC
:10313000B50C890B962800304101EA008030EB0085
:103140000030EC006A084201AE0241016B08420106
:10315000AF3B41016C084201B03B04304101EA0041
:103160006A084201B1003508AB003608AC003708E8
:10317000AD002E084001C80042012F084001C900DF
:10318000420130084001CA00420135084001CB002D
:10319000420136084001CC00420137084001CD0011
:1031A000B9318F219831400148084201B2004001F5
:1031B00049084201B30040014A084201B400350801
:1031C0004001C800420136084001C90042013708E9
:1031D0004001CA00420132084001CB0042013308DD
:1031E0004001CC00420134084001CD00B9318F21AB
:1031F0009831400148084201B200400149084201AB
:10320000B30040014A084201B40035084001C8003B
:10321000420136084001C900420137084001CA0096
:10322000420132084001CB00420133084001CC008A
:10323000420134084001CD00B9318F21983140015D
:1032400048084201B200400149084201B300400170
:103250004A084201B40000304001C800C030C90033
:103260003F30CA00420135084001CB004201360818
:103270004001CC00420137084001CD00B9318F2117
:103280009831400148084201B50040014908420117
:10329000B60040014A084201B70032084101D0009F
:1032A000420133084101D100420134084101D200FA
:1032B000420135084101D300420136084101D400E2
:1032C000420137084101D500D431B0249831410181
:1032D00050084201B500410151084201B6004101C8
:1032E00052084201B7000130B102031DB328410169
:1032F00067084001C800410168084001C900410158
:1033000069084001CA00420135084001CB00420172
:1033100036084001CC00420137084001CD00B931E8
:103320008F21400148084101E7004001490841015F
:10333000E80040014A084101E90008004301AC1DD2
:10334000B32A5C030319CC292C1DC629270826049F
:10335000250424040319C62901304101A8000030C6
:10336000A9000030AA000030AB0028084301A402E5
:10337000410129084301A53B41012A084301A63B1D
:1033800041012B084301A73BAD12C9292C1DC929B6
:10339000AD16CC3115249931430135084001C700E1
:1033A000430134084001C600D6310E269931003A57
:1033B0000319E02943013708B5003608B4003E2A56
:1033C000003043014702653003194602031C3E2AC0
:1033D00000304101B1000030B0000030AF000030DB
:1033E000AE00B601643036020318182A3608A80069
:1033F000A901A835A90D2830AA002F30AB00280854
:103400002A07860029082B3D8700403FAC00413F3A
:10341000AD002C08AE072D08AF3D0030B03DB13DEA
:103420000130A8002808B60764303602031CF629CC
:1034300000304001B2000030B1000030B000643014
:10344000AF00410131084001B600410130084001A0
:10345000B50041012F084001B40041012E08400190
:10346000B300CB316E23993140012F08323E430126
:10347000B40000304001303D4301B5005C08031941
:10348000B21CF62BAC1CF62B2C1C6F2A41084702F1
:10349000031D4C2A40084602031CAD2A013040019E
:1034A000B0000030B1000430CC31C4249931430164
:1034B0005A084101A800A90128084001AB004101B8
:1034C00029084001AC001130AD000030AE00D03111
:1034D000FE2099313A304101AA00DA30982A43019E
:1034E0003F083902031D762A3E0838020318AD2A28
:1034F00001304001B0000030B1000430CC31C424B0
:10350000993143015A084101A800A9012808400146
:10351000AB00410129084001AC001130AD00003082
:10352000AE00D031FE2099315C304101AA00DA3082
:10353000AB0040012B0841012A07B40040012C08D0
:1035400041012B3DB50035084001D8004101340848
:103550004001D700C631BE26993100304001B0008D
:10356000B1000430F32B430161080319D92AFF305D
:103570004101A80028084301E500C231CC2299315D
:103580004101A8002808B2000130A8002808430122
:10359000E506123041013206031DBD2A43013708FA
:1035A000B5003608B400D2310E2299314301E5014D
:1035B000F62B01304001B0000030B1000330CC31B7
:1035C000C42499314301301C142BFA3040016306A6
:1035D000031D142BB501B50A43015A084101A80087
:1035E000A90128084001AB00410129084001AC00B5
:1035F0001130AD000030AE00D031FE2099312630C0
:103600004101AA00DD30AB0040012B0841012A072F
:103610004001B6002C0841012B3D4001B7000130AC
:10362000E731C1279931EE2B40018F1F5B2B4301FE
:10363000E5144001B501B50A43015A084101A8004B
:10364000A90128084001AB00410129084001AC0054
:103650001130AD000030AE00D031FE20993138304D
:103660004101AA00DC30AB0040012B0841012A07D0
:103670004001B6002C0841012B3D4001B70001304C
:10368000E731C127993132304001B3000030B40036
:10369000D13136219931D2310E2299313230400167
:1036A000B3000030B400D1313621993140018F1B75
:1036B000432B1830E32B43012C1FEE2B6515E13112
:1036C000DF219931643040016306031D912BB50160
:1036D000B50A43015A084101A800A9012808400180
:1036E000AB00410129084001AC001130AD000030B1
:1036F000AE00D031FE2099315A304101AA00DC30B1
:10370000AB0040012B0841012A074001B6002C08FC
:1037100041012B3D4001B7000130E731C12799310C
:10372000E12B4001B501B50A43015A084101A80047
:10373000A90128084001AB00410129084001AC0063
:103740001130AD000030AE00D031FE2099317C3018
:103750004101AA00DC30AB0040012B0841012A07DF
:103760004001B6002C0841012B3D4001B70001305B
:10377000E731C1279931400163084101A800A9013F
:10378000AA01AB012B084001CD0041012A084001EC
:10379000CC00410129084001CB004101280840012B
:1037A000CA000A30CE000030CF005C30D431DE24B5
:1037B00099315C304001B0000230B100D13171214B
:1037C000993118304001D700E930D800C631BE2603
:1037D000993143013708B5003608B4000030400184
:1037E000B000B1000330CC31C424993143012C190D
:1037F000AD1E732C4001B501B50A43015A084101C1
:10380000A800A90128084001AB0041012908400196
:10381000AC001130AD000030AE00D031FE20993147
:1038200016304101AA00DC30AB0040012B084101F9
:103830002A074001B6002C0841012B3D4001B7008A
:103840000130E731C12799314001B501B50A430183
:103850005A084101A800A90128084001AB00410114
:1038600029084001AC001130AD000030AE00D0316D
:10387000FE2099319E304101AA00DC30AB004001AE
:103880002B0841012A074001B6002C0841012B3DBD
:103890004001B7000230E731C12799316400C231DD
:1038A000CC2299314101A8002808B3001230330618
:1038B000031D702C4301AD12D630CE315426993100
:1038C00040012F084301A70040012E084301A60034
:1038D00040012D084301A50040012C084301A4002C
:1038E0004301AD1A4E2C4001E3014301E5012C12C6
:1038F0002C13AC1235084001C700430134084001C5
:10390000C600C5318525993143016108031D8E2C00
:10391000E73160279931AC31B324993140019717D1
:103920000A30B3000030B400D13136214001971382
:1039300008004101BC00E8304001B3000330B4008E
:1039400041013C08D73135279C314001330834040C
:103950000319FD2F43012D17E131DF219C31430174
:103960005A084101B800B90138084001AB004101D3
:1039700039084001AC001130AD000030AE00D0314C
:10398000FE209C31E2304101BA00DC30BB00400136
:103990002B0841013A074001B1002C0841013B3D91
:1039A0004001B2005430D1311A219C314301360814
:1039B0004001CA00430137084001CB00CC01CD01D2
:1039C0000A30CE000030CF005C30D431DE249C3190
:1039D0005C304001B1000230B2005430D331812359
:1039E0009C310B304001B100E930B2005430D3318A
:1039F00081239C314001B501B50A5430B600033033
:103A0000B7000130E731C1279C314001B501B50A4B
:103A100043015A084101B800B90138084001AB0020
:103A2000410139084001AC001130AD000030AE005A
:103A3000D031FE209C319E304101BA00DC30BB0009
:103A400040012B0841013A074001B6002C08410112
:103A50003B3D4001B7000230E731C1279C314301B3
:103A600037084001C700430136084001C600C53190
:103A700085259C3143012D144101BE016400C231F2
:103A8000CC229C314101B8003808BD00CE31BA26A5
:103A90009C3143014C1CDE2DC43164249C31E13146
:103AA000DF219C3143015A084101B800B9013808AF
:103AB0004001AB00410139084001AC001130AD00BC
:103AC0000030AE00D031FE209C31E2304101BA001E
:103AD000DC30BB0040012B0841013A074001B10036
:103AE0002C0841013B3D4001B2005430D1311A2134
:103AF0009C31430136084001CA00430137084001A8
:103B0000CB00CC01CD010A30CE000030CF005C30BC
:103B1000D431DE249C315C304001B1000230B2006F
:103B20005430D33181239C310B304001B100E93056
:103B3000B2005430D33181239C314001B501B50A24
:103B40005430B6000330B7000130E731C1279C3153
:103B50004001B501B50A43015A084101B800B90155
:103B600038084001AB00410139084001AC00113078
:103B7000AD000030AE00D031FE209C319E304101BE
:103B8000BA00DC30BB0040012B0841013A0740017C
:103B9000B6002C0841013B3D4001B7000230E7313F
:103BA000C1279C31430137084001C7004301360853
:103BB0004001C600C53185259C31F82F2C1EE02F11
:103BC000400119174301AC16AC13CE31BA269C3113
:103BD00043014C1CED2DFA30032E40018F1FF22DB6
:103BE000C830032E4301AC1FF72D6430032E05307F
:103BF000C6311D269C3140013E08C7003D08C60065
:103C0000D6310E269C314101B80038084001E3004E
:103C100063080319172E01304101B8003808BE07A8
:103C200006303E02031C192E43012C17192E4101A8
:103C3000BE0143012C1B1F2ECC1C4C19E52DCD10B1
:103C4000400119134301AC122C1FBC2F4001191362
:103C500043016515E131DF219C31FA3040016306F3
:103C6000031D602EC43164249C314001B501B50AA6
:103C700043015A084101B800B90138084001AB00BE
:103C8000410139084001AC001130AD000030AE00F8
:103C9000D031FE209C3126304101BA00DD30BB001E
:103CA00040012B0841013A074001B6002C084101B0
:103CB0003B3D4001B7000130E731C1279C31272F40
:103CC0008F1FA42E4301E5144001B501B50A43013D
:103CD0005A084101B800B90138084001AB00410160
:103CE00039084001AC001130AD000030AE00D031D9
:103CF000FE209C3138304101BA00DC30BB0040016D
:103D00002B0841013A074001B6002C0841013B3D18
:103D10004001B7000130E731C1279C310D3041012E
:103D2000B900AF30B800B630890B942EB80B942E82
:103D3000B90B942E0000D2310E229C3140018F1B12
:103D40008E2E4301E510272F643040016306031DCA
:103D5000D32EB501B50A43015A084101B800B90193
:103D600038084001AB00410139084001AC00113076
:103D7000AD000030AE00D031FE209C315A30410100
:103D8000BA00DC30BB0040012B0841013A0740017A
:103D9000B6002C0841013B3D4001B7000130E7313E
:103DA000C1279C31272F6430400163020318272F5D
:103DB000B501B50A43015A084101B800B9013808F4
:103DC0004001AB00410139084001AC001130AD00A9
:103DD0000030AE00D031FE209C317C304101BA0071
:103DE000DC30BB0040012B0841013A074001B6001E
:103DF0002C0841013B3D4001B7000130E731C127AC
:103E00009C31400163084101B800B901BA01BB010E
:103E10003B084001CD0041013A084001CC0041017E
:103E200039084001CB00410138084001CA000A307E
:103E3000CE000030CF005C30D431DE249C315C30C9
:103E40004001B0000230B100D13171219C311830F5
:103E50004001D700E930D800C631BE269C3143016D
:103E600065112C13E131DF219C3143015A084101D6
:103E7000B800B90138084001AB00410139084001E0
:103E8000AC001130AD000030AE00D031FE209C31CE
:103E9000E2304101BA00DC30BB0040012B08410197
:103EA0003A074001B1002C0841013B3D4001B200FE
:103EB0005430D1311A219C31430136084001CA00E7
:103EC000430137084001CB00CC01CD010A30CE00C0
:103ED0000030CF005C30D431DE249C315C304001B6
:103EE000B1000230B2005430D33181239C310B3009
:103EF0004001B100E930B2005430D33181239C310C
:103F00004001B501B50A5430B6000330B7000130A6
:103F1000E731C1279C314001B501B50A43015A0878
:103F20004101B800B90138084001AB00410139082E
:103F30004001AC001130AD000030AE00D031FE20A9
:103F40009C319E304101BA00DC30BB0040012B089F
:103F500041013A074001B6002C0841013B3D4001B8
:103F6000B7000230E731C1279C31430137084001D7
:103F7000C70043013608D72F430137084001AF007F
:103F8000430136084001AE00DA304101B80038087C
:103F90004001B000D5310D259C3143013708B500F3
:103FA0003608B40035084001C70043013408400119
:103FB000C600C53185259C31E131BB219C31F82FEC
:103FC00040011913C231CC229C314101B80038089C
:103FD000BD0012303D06031DF82F43012D10E830BF
:103FE0004001B3000330B4001230D73135279C3183
:103FF00043012D183E2D2C132C1243012D130800C4
:1040020010304001AB004930AC004030AD004101FE
:1040120063084001AE00410164084001AF00410164
:1040220065084001B000D6318026A03103184B2824
:10403200CC304001BB009630BC00C030BD00410115
:1040420063084001BE00410164084001BF00410114
:1040520065084001C000B0312720A03140013B0873
:104062004101E60040013C084101E70040013D08F2
:104072004101E8006608D6006708D7006808D80042
:10408200AE31532641015608E3005708E4005808B0
:10409200E500080010304001BB00C930BC003F30D1
:1040A200BD00410163084001BE00410164084001B6
:1040B200BF00410165084001C000B0312720A03196
:1040C20040013B084101E60040013C084101E70094
:1040D20040013D084101E8006608D6006708D700A4
:1040E2006808D800AE31532641015608E30057084C
:1040F200E4005808E500080040015408B2005308E3
:10410200B1005430D1311A21A031B72A43015A08E3
:104112004101A000A10120084001AB00410121089A
:104122004001AC001130AD000030AE00D031FE20B5
:10413200A031F2304101A200DD30A30040012B0882
:10414200410122074001B1002C084101233D4001F9
:10415200B2004030D1311A21A03140015508CA00C5
:104162005608CB00CC01CD010A30CE000030CF0082
:104172005C30D431DE24A0315C304001B100023029
:10418200B2004030D3318123080043012C18E028CB
:104192005A084101A000A10120084001AB004101E1
:1041A20021084001AC001130AD000030AE00D0312A
:1041B200FE20A0318E304101A200DB30F7284301FE
:1041C2005A084101A000A10120084001AB004101B1
:1041D20021084001AC001130AD000030AE00D031FA
:1041E200FE20A031B0304101A200DB30A30040012B
:1041F2002B08410122074001B1002C084101233D57
:104202004001B2004030D1311A21A0314301AC1C2F
:1042120008005A084101A000A10120084001AB009A
:10422200410121084001AC001130AD000030AE0068
:10423200D031FE20A0317E304101A200DA30A3004D
:1042420040012B08410122074001B1002C08410125
:10425200233D4001B2004030D331812308004301A5
:104262002C1D59295A084101A000A1012008400132
:10427200AB00410121084001AC001130AD0000301B
:10428200AE00D031FE20A0316C304101A200DB3003
:10429200A30040012B08410122074001B1002C0874
:1042A2004101233D4001B2004030D1311A210800C2
:1042B20043015A084101A000A10120084001AB00BE
:1042C200410121084001AC001130AD000030AE00C8
:1042D200D031FE20A0314A304101A200DB30A300E0
:1042E20040012B08410122074001B1002C08410185
:1042F200233D4001B2004030D1311A210800400173
:1043020055035604031DAC2943015A084101A0007C
:10431200A10120084001AB00410121084001AC008D
:104322001130AD000030AE00D031FE20A031283077
:104332004101A200DB30A30040012B08410122070A
:104342004001B1002C084101233D4001B200403040
:10435200D1311A2108000230400155065604031DCE
:10436200D92943015A084101A000A10120084001B6
:10437200AB00410121084001AC001130AD0000301A
:10438200AE00D031FE20A03106304101A200DB3068
:10439200A30040012B08410122074001B1002C0873
:1043A2004101233D4001B2004030D1311A210800C1
:1043B2000330400155065604031D080043015A0804
:1043C2004101A000A10120084001AB0041012108E8
:1043D2004001AC001130AD000030AE00D031FE2003
:1043E200A031E4304101A200DA30A30040012B08E1
:1043F200410122074001B1002C084101233D400147
:10440200B2004030D1311A21080043015A0841015B
:10441200A000A10120084001AB0041012108400198
:10442200AC001130AD000030AE00D031FE20A03122
:10443200D2304101A200DB30A30040012B08410130
:1044420022074001B1002C084101233D4001B20086
:104452004030D1311A210800430166084001CA00E8
:10446200430167084001CB00CC01CD010A30CE00E8
:104472000030CF005C30D431DE24A0315C3040010A
:10448200B1000230B2005430D3318123A031F9306F
:104492004001B100E830B2005430D3318123A03161
:1044A20043015A084101A000A10120084001AB00CC
:1044B200410121084001AC001130AD000030AE00D6
:1044C200D031FE20A031F2304101A200DD30A30044
:1044D20040012B08410122074001B1002C08410193
:1044E200233D4001B2004030D1311A21A0314001B8
:1044F2005508CA005608CB00CC01CD010A30CE00C7
:104502000030CF005C30D431DE24A0315C30400179
:10451200B1000230B2004030D3318123A0310330E8
:1045220040015706031D9D2A1630B100E930B20042
:104532004030D33181230800093040015706031D62
:10454200AA2A0C30B100E930B2004030D3318123C5
:104552000800073040015706031908000830B1006F
:10456200E930B2004030D3318123080040015708BE
:10457200043A0319C6280C3A03193029023A0319DE
:104582008029013A03198728073A03198728023A32
:104592000319062A2D2A08004101B00083313A2B63
:1045A2000E30400164020318DD2A01304101A800E7
:1045B20028084001E407ED2A0130E82A02304001D0
:1045C2006402031CE72A0130E402ED2A0E304101A5
:1045D200A80028084001E40041013008A80028088A
:1045E2004001AB006408C03158204101A9002908EC
:1045F2004001E4008731562F093062020318072B6D
:1046020001304101A80028084001E2078331042B50
:104612004001DD1B182B5D08031D072B5C08031DE1
:10462200072BB8305A020B305B3B0318072B5A0892
:104632004101A80040015B084101A90040015C085A
:104642004101AA0040015D084101AB004301660837
:104652004101AC00430167084101AD00AE01AF0169
:104662002C08A8072D08A93D2E08AA3D2F08AB3D0E
:104672002B084001DD0041012A084001DC00410114
:1046820029084001DB00410128084001DA00DD1B56
:10469200072B5D08031D562B5C08031D562BB930F2
:1046A2005A020B305B3B031C072B0030DD0000304D
:1046B200DC000B30DB00B830492D4001DD1B6D2BD7
:1046C2005D08031D072B5C08031D072BF4305A02FB
:1046D20001305B3B0318072B5A084101A800400137
:1046E2005B084101A90040015C084101AA004001A8
:1046F2005D084101AB00430166084101AC00430182
:1047020067084101AD00AE01AF012C08A8072D08D2
:10471200A93D2E08AA3D2F08AB3D2B084001DD0024
:1047220041012A084001DC00410129084001DB0067
:10473200410128084001DA00DD1B072B5D08031D3B
:10474200AB2B5C08031DAB2BF5305A0201305B3BEF
:10475200031C072B0030DD000030DC000130DB00E1
:10476200F430492D4001DD1BC12B5D08031D072BD1
:10477200A0305A0286305B3B01305C3B0318072BAA
:104782005A084101A80040015B084101A90040010B
:104792005C084101AA0040015D084101AB004301F0
:1047A20066084101AC00430167084101AD00AE015A
:1047B200AF012C08A8072D08A93D2E08AA3D2F08F5
:1047C200AB3D2B084001DD0041012A084001DC001D
:1047D200410129084001DB00410128084001DA00BB
:1047E200DD1B072B5D08031DFF2B5C08031DFF2B40
:1047F20011305A0227305B3B031C072B0030DD00CF
:104802000030DC002730DB001030492D44013E0827
:10481200CE3E4101A800FF3044013F3D4101A900C5
:104822002808AA002908AB00AC01AD0140015D08CF
:10483200803A4101AE002D08803A2E024001031D4C
:10484200322C41012C0840015C02031D322C410133
:104852002B0840015B02031D322C41012A08400152
:104862005A02031C4F2C44013E084001DA00440165
:104872003F08FC2C8231FB2A43012D11AD1140016E
:10488200DD1B4F2C5D08031D072B5C08031D072B46
:1048920010305A0227305B3B0318072B5A0841019C
:1048A200A80040015B084101A90040015C084101E8
:1048B200AA0040015D084101AB00430166084101C5
:1048C200AC00430167084101AD00AE01AF01DF2C2E
:1048D20040016408013A0319092B053A03193B2CDC
:1048E200023A03195E2B013A0319B32B0F3A03194B
:1048F2003B2C013A0319072C023A0319FD2A073A05
:104902000319FD2A013A03193D2C402CFB2A6208A7
:104912000319072B0130E202072B44013C08323E07
:104922004101A800003044013D3D4101A900280891
:10493200AA002908AB00AC01AD012D08803AAE00F7
:1049420040015D08803A41012E02031DB82C40014E
:104952005C0841012C02031DB82C40015B08410197
:104962002B02031DB82C40015A0841012A020318E8
:10497200F62C40015A084101A80040015B084101A0
:10498200A90040015C084101AA0040015D08410103
:10499200AB00430166084101AC00430167084101D5
:1049A200AD00AE01AF01AC09AD09AE09AF09AC0A69
:1049B2000319AD0A0319AE0A0319AF0A2C08A80796
:1049C2002D08A93D2E08AA3D2F08AB3D2B0840011A
:1049D200DD0041012A084001DC00410129084001B3
:1049E200DB00410128084001492D44013C084001F7
:1049F200DA0044013D084001DB00DC01DD01072B48
:104A02003B2C8331002B40015A084101A800400190
:104A12005B084101A90040015C084101AA00400174
:104A22005D084101AB00430166084101AC0043014E
:104A320067084101AD00AE01AF01AC09AD09AE0995
:104A4200AF09AC0A0319AD0A0319AE0A0319AF0A7A
:104A52002C08A8072D08A93D2E08AA3D2F08AB3D1A
:104A62002B084001DD0041012A084001DC00410120
:104A720029084001DB00410128084001DA00DD1F5E
:104A8200072B0030DD000030DC000030DB0000309E
:104A9200DA00072B4301AC19552DAC126510400109
:104AA20019134301DB0108004001B501B50A4301B6
:104AB2005A084001D500D6015508AB005608AC0093
:104AC2001130AD000030AE00D031FE20A531AE3045
:104AD2004001D700DD30D8002B085707B6002C085C
:104AE200583DB7000130E731C127A5314101A1018D
:104AF200A0014501D301D4014001E3014301B80102
:104B0200B9014401CC01CD01CE01CF0143016514AD
:104B1200AC16AC1301304001B0000030B1000630D9
:104B2200CC31C424A531400119170230D5005508F3
:104B32004301DB0002305C06031DAA2DE830400170
:104B4200AB000330AC00E1316521A53143013214E1
:104B5200F92D03305C06031DF12D32104001B50121
:104B6200B50A43015A084001D500D6015508AB00E9
:104B72005608AC001130AD000030AE00D031FE203E
:104B8200A53178304001D700E030D8002B08570714
:104B9200B6002C08583DB7000230E731C127A531D5
:104BA200430123084001CD00430122084001CC000B
:104BB200430121084001CB00430120084001CA0003
:104BC2000A30CE000030CF005C30D431DE24A53173
:104BD2005C304001B0000230B100D1317121A53109
:104BE20040015408AC005308AB00E1316521A53106
:104BF2006400CE31BA26A53143014C1C032EFA3093
:104C02004001072E40018F1F0B2EC830D5005508DA
:104C1200E3004E2E4301AC1F192E64304001D50033
:104C22005508E3000530D50055084101A1004E2E7C
:104C320043015C0803192C1C2D2E3F083902031D69
:104C4200242E3E083802031C2D2E03304001D500CD
:104C520055084301DB004E2E0430C6311D26A53116
:104C620040013E084301B50040013D084301B40044
:104C720035084001C700430134084001C600D6315F
:104C82000E26A5314001D5005508E3004301610815
:104C920003194E2ED331D223A531400163080319E3
:104CA200642E0130D50055084101A10706302102CA
:104CB200031C302F43012C17AC112C124001191385
:104CC2004301DB01302F4301321C752EB01C6B2EC9
:104CD200CC1C6E2E30194C192E2F03304001D500FA
:104CE20055084301DB002E2F03305C06031D2E2FD7
:104CF200B01C7D2ECC18802E30194C1D2C2F41015A
:104D02002008031D2E2FA001A00A90310020A531FA
:104D1200430148084401A407430149084401A53D51
:104D22000030A63DA73D033043013902E9300319A3
:104D32003802031CA62E01304401CC070030CD3DC1
:104D4200E8304301B8020330B93B0130A00700301C
:104D5200A13D0030A23D0030A33D23084001B10037
:104D6200430122084001B000430121084001AF0085
:104D7200430120084001AE000530D5005508B200BD
:104D8200CD312725A53101304401B0070030B13DB6
:104D92000030B23D0030B33D33084001B100440160
:104DA20032084001B000440131084001AF00440123
:104DB20030084001AE00B201B20ACD312725A5313B
:104DC2004001B501B50A43015A084001D500D60198
:104DD2005508AB005608AC001130AD000030AE00F3
:104DE200D031FE20A53178304001D700E030D80024
:104DF2002B085707B6002C08583DB7000230E731A0
:104E0200C127A531430123084001CD0043012208F7
:104E12004001CC00430121084001CB00430120089E
:104E22004001CA000A30CE000030CF005C30D431DD
:104E3200DE24A5315C304001B0000230B100D13136
:104E42007121A53140015408AC005308AB00E13197
:104E52006521A5312E2F4101A0014101A10144018B
:104E62001A18622F023043015C06031D5C2FE830E2
:104E72004001AB000330AC00E1316521A531E830DF
:104E82004401A4070330A53D0030A63D0030A73DF4
:104E9200033043013902E93003193802031C622F3F
:104EA20001304401CC070030CD3DE8304301B80267
:104EB2000330B93B622F03304001D500550843014E
:104EC200DB00023043015B06031D692F2C1FF92D05
:104ED2005C080319722F02305C060319722F2C1F13
:104EE200812F00304001B000B1000630CC31C42423
:104EF200A5314301AC126510400119134301DB01D6
:104F020090310020A53143014908C7004808C60076
:104F120046084401A407430147084401A53D003067
:104F2200A63DA73D2708031DA02F2608031DA02F7D
:104F32002508031DA02F65302402031C0800003041
:104F42004001B2000030B1000030B0006430AF0068
:104F5200440127084001B600440126084001B5007B
:104F6200440125084001B400440124084001B30073
:104F7200CB316E23A531400132084401AB00400120
:104F820031084401AA00400130084401A90040014F
:104F92002F084401A8002808AC072908AD3D2A08BB
:104FA200AE3D2B08AF3D00304001AE000030AD00F9
:104FB2000030AC006430AB00440127084001B2006D
:104FC200440126084001B100440125084001B00017
:104FD200440124084001AF00D731782740012E0850
:104FE2004401A70040012D084401A60040012C08FD
:0E4FF2004401A50040012B084401A400080062
:1050020044011A100800E131FF21A8314001610C6E
:105012000139F200F3017208F0007308F100E73180
:105022004D27A831400161080139F200F3017208ED
:10503200F0007308F100E7314D27A8314001600DFF
:10504200600D0139F200F3017208F0007308F100FB
:10505200E7314D27A8314001600E890C890C0139D6
:10506200F200F3017208F0007308F100E7314D27F6
:10507200A8314001600E890C0139F200F301720877
:10508200F0007308F100E7314D27A8314001600EAE
:105092000139F200F3017208F0007308F100E73100
:1050A2004D27A8314001600CF200F20C720C01395C
:1050B200F300F4017308F0007408F100E7314D27A2
:1050C200A8314001600C890C0139F200F301720829
:1050D200F0007308F100E7314D27A8314001600C60
:1050E2000139F200F3017208F0007308F100E731B0
:1050F2004D27A831400160080139F200F30172081E
:10510200F0007308F100E7314D27A8314301650C27
:10511200890C0139F200F3017208F0007308F10002
:10512200E7314D27A8314301650C0139F200F30143
:105132007208F0007308F100E7314D27A8314301EE
:1051420065080139F200F3017208F0007308F100FA
:10515200E7314D27080041015608D3005708D40013
:105162005808D500D3315923A83141015308E3002F
:105172005408E4005508E500650864046304031D4F
:10518200C9280030D6000030D7000030D80008000F
:1051920000304001AB008030AC003F30AD00410137
:1051A20063084001AE00410164084001AF004101C3
:1051B20065084001B000D6318026A8310318E328E3
:1051C2000130E42800304001D90059084101DF00D4
:1051D2005F08031902296308AA006408AB00650886
:1051E200AC000030AD008030AE003F30AF00BA31CD
:1051F2004322A83141012A08E3002B08E4002C08CD
:10520200E50063084001C800410164084001C9008B
:10521200410165084001CA00410163084001CB0019
:10522200410164084001CC00410165084001CD0004
:10523200B9318F21A831400148084101E000400105
:1052420049084101E10040014A084101E2006008C9
:10525200A0006108A1006208A2003230A300E83079
:10526200A4000430A5000030A600C1314B21A831B2
:1052720041012008D9002108DA002208DB00600879
:10528200A0006108A1006208A2000030A300E8307B
:10529200A4000530A5000030A600C1314B21A83181
:1052A20041012008DC002108DD002208DE005C0844
:1052B200AD005D08AE005E08AF005908AA005A08AA
:1052C200AB005B08AC00BA314322A83141012A0885
:1052D2004001C80041012B084001C90041012C08CE
:1052E2004001CA00410163084001CB00410164084A
:1052F2004001CC00410165084001CD00B9318F2148
:10530200A831400148084101E30040014908410138
:10531200E40040014A084101E5005F080319BD2984
:1053220010304001BB00C930BC003F30BD0041011C
:105332006308D0006408D1006508D200E231092276
:10534200A831410150084001BE004101510840010D
:10535200BF00410152084001C000B0312720A831EE
:1053620040013B084101E30040013C084101E400E7
:1053720040013D084101E50056084001AB004101F2
:1053820057084001AC00410158084001AD0000300F
:10539200AE000030AF000030B000D6318026A83118
:1053A200031CDB2941016308D6006408D7006508A5
:1053B200D800080041016308D0006408D1006508E4
:1053C200D200E231092241015008D6005108D7002B
:1053D2005208D80008004101AB01AC01AD01AE0199
:1053E200E131DF21A93179304001D700E830D8001E
:1053F200C631BE26A931C231CC22A9310C3A0319D9
:10540200080001304101AB070030AC3DE131DF2142
:10541200A9314001AE01AE0A0130D531D825A931FA
:10542200D7304001B000E830B100D1317121A9314B
:1054320041012B084001CA0041012C084001CB0068
:10544200CC01CD010A30CE000030CF005C30D43127
:10545200DE24A9315C304001B0000230B100D1310C
:105462007121A931F2304001B000E830B100D131F0
:105472007121A93101304001AB000030AC00013094
:10548200D131CE21A93140015F084101AE00400176
:105492005E084101AD000A304001AB000030AC00B3
:1054A200430141084001AE00430140084001AD0004
:1054B200D531A325A93141012D09A7002E09A80044
:1054C200A70A0319A80A40015E0841012707A9009B
:1054D20040015F084101283DAA0040012C0841011A
:1054E2002A02031D782A40012B08410129020318D0
:1054F200C42A4001AE01AE0A0230D531D825A93105
:10550200E6304001B000E830B100D1317121A9315B
:1055120041012D09A7002E09A800A70A0319A80A0C
:1055220040015E08410127074001CA005F084101AE
:10553200283D4001CB00CC01CD010A30CE00003025
:10554200CF005C30D431DE24A9315C304001B000A0
:105552000230B100D1317121A931F2304001B000E5
:10556200E830B100D1317121A931C231CC22A93147
:10557200123A031D4C2A00304001AB00AC0001304E
:10558200D131CE21080000304001AB00AC00013027
:10559200D131CE21A93140015F084101AE00400165
:1055A2005E084101AD000A304001AB000030AC00A2
:1055B20043013D084001AE0043013C084001AD00FB
:1055C200D531A325A93141012D09A7002E09A80033
:1055D200A70A0319A80A40015E0841012707A9008A
:1055E20040015F084101283DAA0040012C08410109
:1055F2002A02031D002B40012B0841012902031836
:10560200FC294001AE01AE0A0230D531D825A931BC
:10561200E6304001B000E830B100D1317121A9314A
:1056220041012D09A7002E09A800A70A0319A80AFB
:1056320040015E08410127074001CA005F0841019D
:10564200283D4001CB00CC01CD010A30CE00003014
:10565200CF005C30D431DE24A9315C304001B0008F
:105662000230B100D1317121A931F2304001B000D4
:10567200E830B100D1317121A931C231CC22A93136
:10568200123A031DD42A00304001AB00AC000130B5
:10569200D131CE2108004001B200B30106303302FD
:1056A20003186C2B3308B83E8600023087000108CD
:1056B200A83E86000230870081013308B83E86008A
:1056C2000230870081010130B1003108B307063092
:1056D2003302031C532BB4010530340203188A2B06
:1056E2003408B03E8600023087000108A03E8600E2
:1056F2000230870081013408B03E86000230870004
:1057020081010130B1003108B40705303402031CB5
:10571200712B00304301B3000030B2000030B10001
:105722000030B000CC01CD01A62C05304001B10003
:105732003108AD000030C131C921AB310430400124
:10574200B1003108AD000230C131C921AB310330A3
:105752004001B1003108AD000030C131C921AB3187
:1057620002304001B1003108AD000430C131C9211D
:10577200AB314001AD01AD0A0030C131C921AB31BD
:105782004001AE01AE0A0730CC316B24AB3143018C
:10579200AC1CD22B03304001B1003108AE00043002
:1057A200D82B03304001B1003108AE000630CC31B5
:1057B2006B24AB3104304001B1003108AE0003303C
:1057C200CC316B2443013214080005304001B10092
:1057D2003108AD000130C131C921AB310430400183
:1057E200B1003108AD000230C131C921AB31033003
:1057F2004001B1003108AD000330C131C921AB31E4
:1058020002304001B1003108AD000430C131C9217C
:10581200AB314001AD01AD0A0030C131C921AB311C
:105822004001AE01AE0A0730CC316B24AB310230FD
:105832004001B1003108AE000130CC316B24AB31F4
:105842004301AC1C2B2C03304001B1003108AE00E7
:105852000430312C03304001B1003108AE00053074
:10586200CC316B24AB3104304001B1003108AE00C1
:105872000330CC316B24AB31023043015C06031D93
:10588200442C321408003210080005304001B100E7
:105892003108AD000130C131C921AB3104304001C2
:1058A200B1003108AD000230C131C921AB31033042
:1058B2004001B1003108AD000330C131C921AB3123
:1058C20002304001B1003108AD000530C131C921BB
:1058D200AB314001AD01AD0A0030C131C921AB315C
:1058E2004001AE01AE0A0730CC316B24AB3102303D
:1058F2004001B1003108AE000130CC316B24AB3134
:105902004301AC1C8B2C03304001B1003108AE00C6
:105912000430912C03304001B1003108AE00053053
:10592200CC316B24AB3104304001B1003108AE0000
:105932000330CC316B24AB31023043015C06031DD2
:10594200A42C321408003210080040013208013A37
:105952000319962B033A0319E62B013A0319462C35
:10596200B22C0800E131DF21AC31023043015C0688
:105972000319BF2C03305C06031DCB2D4001B5017A
:10598200B50A43015A084001D300D4015308AB00C1
:105992005408AC001130AD000030AE00D031FE2012
:1059A200AC31C2304001D500DA30D6002B085507A1
:1059B200B6002C08563DB7000130E731C127AC31A3
:1059C20044014C084001CA0044014D084001CB008B
:1059D200CC01CD010A30CE000030CF005C30D43192
:1059E200DE24AC315C304001B0000230B100D13174
:1059F2007121AC3103304001B000E930B100D13146
:105A02007121AC314001B501B50A43015A08400188
:105A1200D300D4015308AB005408AC001130AD00E0
:105A22000030AE00D031FE20AC31A0304001D500B4
:105A3200DA30D6002B085507B6002C08563DB700C1
:105A42000230E731C127AC3100304001B2000030F2
:105A5200B1000030B0000A30AF0044012B08400111
:105A6200B60044012A084001B5004401290840015A
:105A7200B400440128084001B300CB316E23AC319D
:105A8200400132084101A300400131084101A20056
:105A9200400130084101A10040012F084101A0004E
:105AA20023084001CD00410122084001CC00410100
:105AB20021084001CB00410120084001CA000A3000
:105AC200CE000030CF005C30D431DE24AC315C300B
:105AD2004001B0000230B100D1317121AC311A3035
